:100000000A128A15DA2C8030831603139F002F30D2
:100010008500073089008130831203139F00080098
:100020008312031306108610061286120613861317
:100030008316031306108610061286120613861303
:100040000230F7000430F600BA30F500F50B262830
:10005000F60B2628F70B262864000F30F5007508EC
:100060008312031386053030F500750886040A12E2
:100070008A15FA240A128A112730F600F530F500A5
:10008000F50B4028F60B40280F30F5007508831259
:10009000031386053030F500750886040A128A15A8
:1000A000FA240A128A11D630F50056285728F50B83
:1000B000552864000F30F500750883120313860578
:1000C0003030F500750886040A128A15FA240A12DF
:1000D0008A110D30F600FB30F500F50B6D28F60B9C
:1000E0006D2872280F30F5007508831203138605FA
:1000F00086160A128A15FA240A128A110D30F600A1
:10010000FB30F500F50B8228F60B82288728283073
:100110000A128A1584250A128A110C300A128A15CD
:1001200084250A128A1101300A128A1584250A12BE
:100130008A1106300A128A1584250A128A110800CB
:10014000831203133A08BD003B08BE003C08BF0001
:1001500003103E0D3F0DC0004008C500C508031D3B
:10016000B228B328BB280030B7000030B8000030F8
:10017000B900672967293708BD003808BE0039086B
:10018000BF0003103E0D3F0DC0004008C600C6086A
:10019000031DCB28CC28D4280030B7000030B8008D
:1001A0000030B900672967290030C2000030C30061
:1001B0000030C40089304607BD003D08C5023A083A
:1001C000BD003B08BE003C08BF0010300310BF0C50
:1001D000BE0CBD0CFF3E031DE6283D08C0004008D4
:1001E000C6003708BD003808BE003908BF0010300F
:1001F0000310BF0CBE0CBD0CFF3E031DF8283D08CC
:10020000C0004008C6068030BD003D08C605BB17CB
:10021000FF30BA05FF30BB050030BC05B817FF3012
:10022000B705FF30B8050030B9051830BD003D08EE
:10023000C1001A2901300310C20DC30DC40DFF3EC9
:10024000031D1B2939083C02031D2C2938083B02D9
:10025000031D2C2937083A02031C2F2930293C2979
:100260003708BA023808031C380FBB023908031CD0
:10027000390ABC0242143C2901300310BA0DBB0DEF
:10028000BC0DFF3E031D3D290130C102031D49295C
:100290004A291A294B294208F0004308F100440872
:1002A000F2004508BD003D08F3004608BE003E08C8
:1002B000F4000A128A1536260A128A11700883126F
:1002C0000313B7007108B8007208B9006729080065
:1002D000831203134708CD004808CE004908CF0019
:1002E00003104E0D4F0DD0005008D100D108031D52
:1002F0007A297B2983290030C7000030C8000030EC
:10030000C900552A552A4A08CD004B08CE004C0892
:10031000CF0003104E0D4F0DD0005008D600D60868
:10032000031D932994299C290030C7000030C80080
:100330000030C900552A552A56087B3ECD004D088D
:10034000D1074708CD004808CE004908CF0010303B
:100350000310CF0CCE0CCD0CFF3E031DA8294D0879
:10036000D0005008D6004A08CD004B08CE004C08FB
:10037000CF0010300310CF0CCE0CCD0CFF3E031D70
:10038000BA294D08D0005008D6068030CD004D085F
:10039000D605C817CB17FF30CA05FF30CB05003094
:1003A000CC050030D2000030D3000030D40007303C
:1003B000CD004D08D500DC29471CDF29E029F129B3
:1003C0004A08D2074B08031103184B0A0319E929FD
:1003D000D3074C08031103184C0A0319F029D4075A
:1003E000F12901300310C90CC80CC70CFF3E031DD6
:1003F000F22901300310CA0DCB0DCC0DFF3E031DB9
:10040000FA290130D502031D062A072ADC29082A09
:100410000930CD004D08D5000D2A471C102A112A9D
:10042000222A4A08D2074B08031103184B0A031962
:100430001A2AD3074C08031103184C0A0319212A5E
:10044000D407222A01300310C90CC80CC70CFF3E88
:10045000031D232A01300310D40CD30CD20CFF3E11
:10046000031D2B2A0130D502031D372A382A0D2AF5
:10047000392A5208F0005308F1005408F2005108DC
:10048000CD004D08F3005608CE004E08F4000A12C5
:100490008A1536260A128A11700883120313C700C0
:1004A0007108C8007208C900552A08008312031396
:1004B0002A08B0002B08B1002C08B2000310310D3F
:1004C000320DB3003308B6002D08B0002E08B1007D
:1004D0002F08B2000310310D320DB3003308B50000
:1004E0003608031D742A852A350836020318792A2E
:1004F0007A2A8D2A3603FF3A3507B00019303002C8
:10050000031C832A842A8D2A852A2D08AA002E08F6
:10051000AB002F08AC009B2B9B2B3508031D912AA9
:10052000A12A360835020318962A972AA22A3503EB
:10053000FF3A3607B00019303002031CA02AA12A66
:10054000A22A9B2B0630B0003008B400AC1FA92AA9
:10055000AA2AAB2AB417AF1FAE2AAF2AB02A341783
:10056000AB17FF30AA05FF30AB050030AC05AE1766
:10057000FF30AD05FF30AE050030AF05350836025F
:100580000318C32AC42AF52AC52A01300310AD0D69
:10059000AE0DAF0DFF3E031DC62A0130B502350872
:1005A00036060319D42AD52AED2A0130B4023408BC
:1005B0000739031DDC2ADD2AC52AED2AED2AED2A9A
:1005C00001300310AC0CAB0CAA0CFF3E031DE12A5A
:1005D0000130B0003008B607ED2A36083506031D95
:1005E000F22AF32AE02A2C2B2C2B3608350203188A
:1005F000FA2AFB2A2C2BFC2A01300310AA0DAB0D82
:10060000AC0DFF3E031DFD2A0130B602350836064B
:1006100003190B2B0C2B242B0130B402340807399F
:10062000031D132B142BFC2A242B242B242B0130E9
:100630000310AF0CAE0CAD0CFF3E031D182B0130A8
:10064000B0003008B507242B36083506031D292BCA
:100650002A2B172B2C2B2C2BB41F2F2B302B412B61
:10066000FF30AA06FF30AB06FF30AC060130AA0708
:10067000003003180130AB07003003180130AC071D
:10068000412B341F442B452B562BFF30AD06FF303A
:10069000AE06FF30AF060130AD0700300318013061
:1006A000AE07003003180130AF07562BB4012A08FB
:1006B000AD072B08031103182B0A0319602BAE0793
:1006C0002C08031103182C0A0319672BAF07AF1F5F
:1006D0006A2B6B2B7F2BFF30AD06FF30AE06FF3051
:1006E000AF060130AD07003003180130AE0700300F
:1006F00003180130AF07B4010314B40D7F2B2D088C
:10070000F0002E08F1002F08F2003608B000300883
:10071000F3003408B1003108F4000A128A153626B5
:100720000A128A11700883120313AA007108AB0021
:100730007208AC009B2B080083160313C401C5018B
:10074000B001B101B201B301B401B501B601B70105
:10075000B801B901BA01BB01BC01BD01BE01BF01B5
:100760000A128A1103200A128A110A128A11102011
:100770000A128A11BB2B01300A128A15B0250A12FF
:100780008A11710883160313B101B1077008B00113
:10079000B007003083120313E300FA30E400423064
:1007A000E5000030E0000030E1000030E200C03041
:1007B000DD007F30DE004430DF000030DA00003042
:1007C000DB000030DC0083160313310883120313AF
:1007D000AB01AB0783160313300883120313AA017E
:1007E000AA070A128A1513250A128A118312031303
:1007F0002A08D7002B08D8002C08D9000A128A151D
:1008000057270A128A11831203135708F800580851
:10081000F9005908FA000A128A15B1260A128A113B
:10082000790883160313B101B1077808B001B00746
:1008300002300A128A15B0250A128A11710883162D
:100840000313B301B3077008B201B207003083127B
:100850000313E300FA30E4004230E5000030E0002A
:100860000030E1000030E200C030DD007F30DE000B
:100870004430DF000030DA000030DB000030DC0004
:1008800083160313330883120313AB01AB078316DC
:100890000313320883120313AA01AA070A128A1546
:1008A00013250A128A11831203132A08D7002B0872
:1008B000D8002C08D9000A128A1557270A128A1163
:1008C000831203135708F8005808F9005908FA0072
:1008D0000A128A15B1260A128A117908831603139F
:1008E000B301B3077808B201B20703300A128A15C0
:1008F000B0250A128A11710883160313B501B507D2
:100900007008B401B407003083120313E300FA3017
:10091000E4004230E5000030E0000030E10000304B
:10092000E200C030DD007F30DE004430DF00003008
:10093000DA000030DB000030DC00831603133508DA
:1009400083120313AB01AB0783160313340883121E
:100950000313AA01AA070A128A1513250A128A117B
:10096000831203132A08D7002B08D8002C08D900BB
:100970000A128A1557270A128A118312031357087D
:10098000F8005808F9005908FA000A128A15B12629
:100990000A128A11790883160313B501B50778087E
:1009A000B401B40704300A128A15B0250A128A115C
:1009B000710883160313B701B7077008B601B607AD
:1009C000003083120313E300FA30E4004230E50004
:1009D0000030E0000030E1000030E200C030DD0017
:1009E0007F30DE004430DF000030DA000030DB0012
:1009F0000030DC0083160313370883120313AB01A6
:100A0000AB0783160313360883120313AA01AA0740
:100A10000A128A1513250A128A11831203132A084F
:100A2000D7002B08D8002C08D9000A128A1557279E
:100A30000A128A11831203135708F8005808F900A4
:100A40005908FA000A128A15B1260A128A11790881
:100A500083160313B701B7077808B601B607053048
:100A60000A128A15B0250A128A1171088316031317
:100A7000B901B9077008B801B80700308312031331
:100A8000E300FA30E4004230E5000030E0000030DE
:100A9000E1000030E200C030DD007F30DE00443095
:100AA000DF000030DA000030DB000030DC008316AD
:100AB0000313390883120313AB01AB078316031327
:100AC000380883120313AA01AA070A128A151325EC
:100AD0000A128A11831203132A08D7002B08D800A0
:100AE0002C08D9000A128A1557270A128A11831274
:100AF00003135708F8005808F9005908FA000A12B9
:100B00008A15B1260A128A11790883160313B901CE
:100B1000B9077808B801B80706300A128A15B02557
:100B20000A128A11710883160313BB01BB077008F0
:100B3000BA01BA07003083120313E300FA30E4006D
:100B40004230E5000030E0000030E1000030E2001B
:100B5000C030DD007F30DE004430DF000030DA00DE
:100B60000030DB000030DC00831603133B088312E7
:100B70000313AB01AB07831603133A088312031365
:100B8000AA01AA070A128A1513250A128A118312CA
:100B900003132A08D7002B08D8002C08D9000A1202
:100BA0008A1557270A128A11831203135708F8006F
:100BB0005808F9005908FA000A128A15B1260A12D3
:100BC0008A11790883160313BB01BB077808BA01A1
:100BD000BA0707300A128A15B0250A128A1171085D
:100BE00083160313BD01BD077008BC01BC070030AC
:100BF00083120313E300FA30E4004230E5000030D2
:100C0000E0000030E1000030E200C030DD007F3065
:100C1000DE004430DF000030DA000030DB0000305E
:100C2000DC00831603133D0883120313AB01AB07EB
:100C3000831603133C0883120313AA01AA070A129E
:100C40008A1513250A128A11831203132A08D70062
:100C50002B08D8002C08D9000A128A1557270A1227
:100C60008A11831203135708F8005808F90059082D
:100C7000FA000A128A15B1260A128A117908831617
:100C80000313BD01BD077808BC01BC0700300A1280
:100C90008A15B0250A128A11710883160313BF0141
:100CA000BF077008BE01BE07003083120313E300C4
:100CB000FA30E4004230E5000030E0000030E100AE
:100CC0000030E200C030DD007F30DE004430DF0065
:100CD0000030DA000030DB000030DC008316031344
:100CE0003F0883120313AB01AB07831603133E08BF
:100CF00083120313AA01AA070A128A1513250A12DE
:100D00008A11831203132A08D7002B08D8002C0855
:100D1000D9000A128A1557270A128A11831203135F
:100D20005708F8005808F9005908FA000A128A15FD
:100D3000B1260A128A11790883160313BF01BF076F
:100D40007808BE01BE0732083007A0003308031838
:100D5000330A3107A10034082007A2003508031820
:100D6000350A2107A30036082207A4003708031814
:100D7000370A2307A50038082407A60039080318F6
:100D8000390A2507A7003A082607A8003B080318D8
:100D90003B0A2707A9003C082807AA003D080318BA
:100DA0003D0A2907AB003E082A07C4003F08031884
:100DB0003F0A2B07C500E830F6000330F70045086E
:100DC000F901F9074408F801F8070A128A15E8251D
:100DD0000A128A11770883160313C301C307760822
:100DE000C201C2076430F6000030F7004308F10189
:100DF000F1074208F001F007E830F2000330F30099
:100E00000A128A152E250A128A11700983160313F5
:100E1000A0007109A100A00A0319A10A4408200733
:100E2000F80045080318450A2107F9000A128A1537
:100E3000E8250A128A11770883160313C101C10736
:100E40007608C001C0070A30F6000030F7004308FA
:100E5000F101F1074208F001F007E830F200033039
:100E6000F3000A128A152E250A128A1170088316B9
:100E70000313A0007108A1004108F101F107400827
:100E8000F001F0076430F2000030F3000A128A1516
:100E90002E250A128A117008831603132007A20058
:100EA00071080318710A2107A300A209A309A20A65
:100EB0000319A30A44082207F80045080318450A45
:100EC0002307F9000A128A15E8250A128A11770801
:100ED00083160313AF01AF077608AE01AE074308D0
:100EE000F101F1074208F001F007E830F2000330A9
:100EF000F3000A128A152E250A128A117008831629
:100F00000313A0007108A1004108F101F107400896
:100F1000F001F0076430F2000030F3000A128A1585
:100F20002E250A128A117008831603132007A200C7
:100F300071080318710A2107A3002F08F101F107B6
:100F40002E08F001F0070A30F2000030F3000A1218
:100F50008A152E250A128A11700883160313220798
:100F6000A40071080318710A2307A500A409A509A4
:100F7000A40A0319A50A44082407AC00450803186D
:100F8000450A2507AD000A128A15EA240A128A11B9
:100F9000831603134208303E0A128A1558250A1296
:100FA0008A11831603134008303E0A128A15582509
:100FB0000A128A11831603132E08303E0A128A156C
:100FC00058250A128A11831603132C08303E0A1280
:100FD0008A1558250A128A110D3083160313A200B0
:100FE000AF30A100C130A000A00BF42FA10BF42F53
:100FF000A20BF42F6400BB2BBB2B0A128A11002812
:1019B40083010A128A119C2B7208710470040319A2
:1019C400E42CE52CE82C8030F206E82CE92C080005
:1019D40001300A128A1584250A128A150D30F60080
:1019E400FB30F500F50BF42CF60BF42CF92C080065
:1019F4008312031306140430F1003D30F000F00BA1
:101A0400012DF10B012D062D831203130610043052
:101A1400F1003D30F000F00B0D2DF10B0D2D122DCA
:101A24000800831203132A08F0002B08F100F201C6
:101A34008E30FC007C08F300F4010A128A15362665
:101A44000A128A15700883120313AA007108AB00E6
:101A54007208AC002D2D0800F401F501312D701C25
:101A6400342D352D3B2D7208F4070318F50A73083D
:101A7400F50701300310F20DF30DFF3E031D3C2D5D
:101A840001300310F10CF00CFF3E031D432D7108CF
:101A94007004031D4E2D4F2D312D502D7508F1016D
:101AA400F1077408F001F007572D0800F4008312C1
:101AB400031386140F30F200720886057408F03997
:101AC400F200720886040A128A15FA240A128A1588
:101AD4000F30F20072088312031386057408F200B3
:101AE40003300310F20DFF3E031D732D0310720D1E
:101AF400F039F300730886040A128A15FA240A12CC
:101B04008A150800F4008312031386100F30F200C4
:101B1400720886057408F039F200720886040A1205
:101B24008A15FA240A128A150F30F20072088312F9
:101B3400031386057408F20003300310F20DFF3E10
:101B4400031D9F2D0310720DF039F30073088604F2
:101B54000A128A15FA240A128A150800F400C730FA
:101B6400F2007208831203139F057408F200023016
:101B74000310F20DFF3E031DBA2D0310720DF30086
:101B840073089F044130F300EE30F200F20BC82DCD
:101B9400F30BC82D6400831203131F15D12D1F19D5
:101BA400D42DD52DD12DD62D1E08F200F3017208A7
:101BB400F300F201831603131E087207F0000030CD
:101BC400031801307307F100E72D0800FB01FC0145
:101BD400770876040319EF2DF02D2E2EFD01031442
:101BE400FD0D002E01300310F60DF70DFF3E031D11
:101BF400F52D0130FA007A08FD07002EF71F032E99
:101C0400042EF42D062E062E01300310FB0DFC0DC0
:101C1400FF3E031D072E77087902031D132E760855
:101C24007802031C162E172E1F2E7608F80277084A
:101C3400031CF903F9027B141F2E01300310F70C67
:101C4400F60CFF3E031D202E0130FD02031D2B2E3A
:101C54002C2E062E2E2E2E2E7C08F701F7077B083D
:101C6400F601F607352E08007308031D3A2E422E9E
:101C7400720871047004031D402E412E582E422E0A
:101C84000030F0000030F1000030F200B02EB02E31
:101C9400582E0130F5007508F30701300310F20CDB
:101CA400F10CF00CFF3E031D502E582EFE30720531
:101CB400031D5D2E5E2E4B2E762E762E0130F50002
:101CC4007508F3070130F007003003180130F107FD
:101CD400003003180130F20701300310F20CF10C4C
:101CE400F00CFF3E031D6F2EFF307205031D7B2E8B
:101CF4007C2E602E892E892E0130F30201300310D0
:101D0400F00DF10DF20DFF3E031D812E892EF11F02
:101D14008C2E8D2E7E2E7318902E912E972EFF30A2
:101D2400F0057F30F105FF30F2050310F30C730862
:101D3400F500F601F70110300310F50DF60DF70D5F
:101D4400FF3E031D9E2E7508F0047608F104770803
:101D5400F2047408031DAF2EB02EF21708007808A1
:101D640083120313A0007908A1007A08A2000310CB
:101D7400210D220DA3002308A900A908031DC32EC9
:101D8400C42ECE2E0030FB000030FA000030F900E3
:101D94000030F800562F562F7808A0007908A100CB
:101DA4007A08A20017300310A20CA10CA00CFF3E6D
:101DB400031DD52E2008A3002308A400F917FF3023
:101DC400F805FF30F9050030FA057808A500790810
:101DD400A6007A08A700A8018E30A902A91FF32E35
:101DE400F42E192F2908803A8F3E0318FA2EFB2E61
:101DF400062F0030FB000030FA000030F9000030FC
:101E0400F800562F562F062F01300310A80CA70CEC
:101E1400A60CA50CFF3E031D072F0130A0002008CF
:101E2400A907031D162F172F062F3D2F3D2F1830FE
:101E34002902031C1E2F1F2F362F0030FB000030F9
:101E4400FA000030F9000030F800562F562F362FD4
:101E54000130A0000310A50DA60DA70DA80DA00B21
:101E64002C2F0130A902362FA908031D3A2F3B2F2E
:101E74002A2F3D2F3D2F2408031D412F4D2FA50947
:101E8400A609A709A809A50A0319A60A0319A70AF6
:101E94000319A80A4D2F2808FB002708FA00260872
:101EA400F9002508F800562F0800831203135D0873
:101EB400AA005E08AB005F08AC005A08F0005B089B
:101EC400F1005C08F2000A128A15DE240A128A154F
:101ED400700883120313AD007108AE007208AF00DE
:101EE4000A128A1156220A128A15831203132A0827
:101EF400B7002B08B8002C08B9006308AA006408CE
:101F0400AB006508AC006008F0006108F1006208ED
:101F1400F2000A128A15DE240A128A157008831246
:101F24000313AD007108AE007208AF000A128A11E3
:101F340056220A128A15831203132A08BA002B08A0
:101F4400BB002C08BC000A128A11A0200A128A15B0
:101F5400831203133708C7003808C8003908C900BA
:101F64005708AA005808AB005908AC005A08F000FA
:101F74005B08F1005C08F2000A128A15DE240A12DA
:101F84008A15700883120313AD007108AE0072083D
:101F9400AF000A128A1156220A128A1583120313F9
:101FA4002A08CA002B08CB002C08CC000A128A117C
:101FB40068210A128A15831203134708E6004808A9
:101FC400E7004908E8006008AA006108AB0062085D
:101FD400AC006608AD006708AE006808AF000A12DE
:101FE4008A1156220A128A15831203132A08D7006B
:0C1FF4002B08D8002C08D900FF2F080093
:02400E0072FF3F
:00000001FF
